:1000000002143202AF22A218E4332202006AB402C0
:1000100004A9B7EA2224FFA997EA22025FD1B40219
:1000200004A9B6EA2224FFA996EA22026FEB7F60B8
:10003000A9C2EA74011207E67F0612045E7F060277
:10004000080022027007A20DE43322020072120E91
:10005000F10211C9EBAA08022FF622020076010272
:10006000040810204080023238223202011C023380
:10007000932232020EA1CA7BCA6BCA5BCA4BCA2B3F
:10008000CA1BCA0BC0D0C083C082D20D7E0F3537C9
:10009000693000047A7335477E7335470A375E341A
:1000A00000046804D20C8002C20C7E34001F793038
:1000B0000004C2C31210EE1270897E1F35376931F9
:1000C00000025E340040682E6CAA7E1002AC1A7EDC
:1000D0001F35377F712DF06917009C5910353B0B88
:1000E000A0BEA00378E4691100A47A1735436931F2
:1000F00000A27A373541A9C1C4D082D083D0D0DAEA
:100100000BDA1BDA2BDA4BDA5BDA6BDA7B327D1334
:100110007E1F357B1B1A10C2C6D2EE2232FF542C32
:10012000CA3B7F307401121215297300F32E70FF41
:10013000920429B300F41211E67F03120BD17F035E
:100140001205642973000A0A377E0F3537793000AB
:1001500024297300A30A273E243E243E243E243E45
:10016000243E243E24693300FF4D327E0F3537791B
:100170003000022973000A0A47297300050A579DB7
:1001800054F53D29B300A5700B29B300F82973007D
:10019000F7120A0C297300A52E70FF9204E53D1298
:1001A000097D693300FD7E0F3537793000286923DA
:1001B00000FB3E243E243E243E243E243E2429735C
:1001C00000FA0A372D327E0F35377930002A29732D
:1001D00000F90A377E0F35377930002C7E34000164
:1001E0007E0F3537793000347E34010B7E0F353782
:1001F0007930002E297300050A377E0F35377930A4
:100200000010693300A87E0F35377930001C693340
:1002100000AA7E0F35377930001E6CAA7E5002ACE2
:100220005A691301012D127E0400FF0B0A307E0F64
:1002300035372D12793000440BA0BEA00C40DDDA1A
:100240003B22CA797F507CEB7E3400247E08002C50
:100250007E24000212316AE52CBEB0003802416CE7
:10026000E52CBEB0762802416C7EE12CBEE07638EB
:1002700002419A7E3413BE793500027E3413A2798E
:10028000350004BEE0816802419374237A5BB07448
:100290001C615074017A5BB061507CBE1BB1780266
:1002A00041DD1BB1780241DD24FD780241DD24FDF2
:1002B000780241DD1BB1780241DD24FD780241F175
:1002C0001BB1780241E314780241DD24FD7802413C
:1002D000DD24A0780241DD2474680241FF7E3413DE
:1002E0009261037E341392793500027E3413566195
:1002F0000B7E341383793500027E34136A610B7EE2
:100300003413BE793500027E3413A279350004BE61
:10031000E0162802611A7CFE612E7EF016BEE072A5
:100320005002612E0A3E9E3400720B342CF77E7010
:1003300003AC7F7D232E2413E27A51827A4183E439
:10034000937A5BB02E3413E37A71827A6183E493FB
:1003500039B50001DA7922CAF87F707E7BF02977FF
:100360000001BC7F28027CF7691700066D007E340F
:1003700000F274FF1215577F07120D4CA9D6CB6CF3
:10038000AA802D6C77801F7E100BAC1A0A172D01E6
:100390003E04691700062D106D000B0A206E24FF25
:1003A000FF1B0A200B7029670001BC6738D90BA01E
:1003B0007E7B60BC6A38CC693700067E0F358A794F
:1003C0003000047C4F6C550A3F2D327E0F358A7900
:1003D00030000C6D117E1F358A1B1A107E3400D040
:1003E000120DA46CAABEA00450187E7004AC7A7CD6
:1003F000B77E1F358A6941002660421E441478FB8F
:10040000803BBEA008501B0A3A1B363E343E347C6B
:10041000B77E1F358A6941002860221E441478FB8C
:10042000801B0A3A9E3400083E343E347CB77E1F5F
:10043000358A6941002A60051E441478FB5E440039
:100440000F7E5002AC5A693700062D326D221B1AFE
:10045000400BA0BEA00B408DA9C6CBDAF8222970B4
:10046000009629900098296000972980008DBE8011
:100470000438046CAA8021BE800838057EA0018063
:1004800017BE801038057EA002800DBE8020380582
:100490007EA00380037EA004BE900328037E900309
:1004A000BE803F28037E803FBE600128037E60013E
:1004B000BE700228026C770A283E243E243E243E69
:1004C000243E247C896C993E443E443E442D420A9D
:1004D000263E243E243E243E242D240A373E343E2C
:1004E000342D327E7F357B7937000229B0008C7C39
:1004F0004B6C5529B0008B0A3B2D327E7F352F790E
:10050000370080693000A07E7F357B7937000C6929
:1005100030009E5E34E00F29B0008C0A2B1B243E75
:10052000243E243E243E242D327E7F352F79370011
:10053000820A2A3E243E243E243E2429B000990A01
:100540003B2D327E7F357B793700066930009C7EFB
:100550007F357B793700086930009A7E0F357B79CB
:1005600030000A227F607401121215293600F52925
:100570002600A3291600A4BE200228037E2002BE66
:10058000104028037E10407E3400047CB260053E9B
:10059000341478FB7C070A317E2F3537793200120C
:1005A0007C73AC700A2112123D7C270A327E2F35F3
:1005B00037793200147C73AC70292600F60A22AD1C
:1005C000320A218D327D437C73AC700A2112123DB8
:1005D0007CA77C2A7CB92CABBEA00C50037EA00C5F
:1005E000BE200C50037E200C0A200A3112123D7DE1
:1005F000E30A3A0B34AD3E0B34BE34020040047EB5
:100600003401FF294600F77E5002AC450AF2ADFEE8
:100610002D2F0B24BE24020040047E2401FF0A1368
:100620007E7F35377917000A1E247C456C551E34B1
:100630002D327E0F35377930000C0A3A7E0F353770
:1006400079300022227F21A9D6CB693000047E7F39
:10065000358A79370004693000087E7F358A79371A
:100660000006693000067E7F358A793700082970D8
:1006700000017C476C557E0B700A372D327E7F352A
:100680008A7937000C297000020A371B347E7F35C7
:100690008A7937000A6930000A7E7F358A79370007
:1006A0000E6930000C7E7F358A7937001069300082
:1006B0000E7E7F358A79370012297000037C276C03
:1006C000337E1F358A1B1A107E3400A0120DA47EC3
:1006D0001F358A6911001A7A2B306911001C3932D2
:1006E00000016911001679120002691100187912CF
:1006F00000046911002279120006691100247912A0
:1007000000086911001E7912000A6931002079324F
:10071000000CA9C6CB22CA3B7C577C4B5E400369C8
:100720003000045E603F6CAA0A4A69F0000A69E082
:1007300000082DF47E7BB00AFB7D4F7C896C997D8F
:10074000F40AEA69D0000E69C0000C2DDE7E6BB0A1
:100750000A4B2D4F7ED028ACD57EF002ACFA7DD767
:100760002DD67EF0F0ACF42DD77E7F35772DFD7938
:1007700047018C0BA0BEA00E78AE6CAA7E9002AC96
:100780009A69F000020B0AE02DF40B7A407ED02823
:10079000ACD57EF002ACFA7DD72DD67EF0F0ACF46D
:1007A0002DD77E7F35772DFD794701800BA0BEA028
:1007B0000440C97E90F0AC947428ACB57DF52DF45E
:1007C0007E2F35772D5F79320188693000067E30C3
:1007D000F0AC347428AC5B2D217E0F35772D127967
:1007E00030018ADA3B22BEB000280AA9D7CAA9D3B1
:1007F000CBA9D2CB22A9C7CAA9C3CBA9C2CB22FFFE
:100800002960000B0A46296000040A262D247C6515
:1008100029B00006BCB628027C6B2970000529B0FF
:100820000007BCB728027C7B6CAA6D227E9002ACCC
:100830009A7E7F352F2DF4792700020BA0BEA023CE
:1008400078EA6CAA80550A2A7F702DF22957004C4D
:10085000BE50235023294700B40AD47D4D7C896CB7
:10086000997DD47E9002AC957E7F352F2DF40BF5CB
:100870000B7A404D4D1B7A400A4A7F702DF4294770
:10088000004C0AD47E9002AC9A7E7F352F2DF40B5B
:10089000F50B7A404D4D1B7A400BA0BC6A38A76C13
:1008A000AA801D0A2A7F702DF22967006F0A467EF2
:1008B0005002AC5A7E7F352F2DF2794700480BA0AD
:1008C000BC7A38DF227C7B7E7F35376947000C6C31
:1008D000883E446907000A695700021E541E541ED0
:1008E000541E541E541E541E545E5400037E1400A5
:1008F00004700201FA3E141478FB7CA30ADAADD02E
:100900007DCD6D117917008C7CB7700221131ED438
:100910001478FBBED40100380221217ED4010021CD
:100920002DBED400104002212D7ED400107D3D123A
:1009300010BA0A1B7E1F3537791100907E1F35379C
:1009400079D1008E7E7F353769370008AD3C8D3D0B
:10095000793700927E1400067E1F35377911009496
:100960007D249D200A3AAD327E0F353779300096CE
:100970007E3400107E0F353779300098227C5B7E04
:100980000F35376940002230046B6DFF7D3FBE504C
:1009900010282E7E54FFFF795000429E50106CAA02
:1009A00080117EE400017CBA60053EE41478FB2DE2
:1009B0003E0BA0BC5A38EB7E6F353779360040804D
:1009C0002579F000406CAA80117EF400017CBA60A9
:1009D000053EF41478FB2D3F0BA0BC5A38EB7E7F0C
:1009E0003537793700427D342E34000C7E7F353721
:1009F00079370016226D33793000407E0F35377914
:100A00003000427E1F353779410016227C177C3B2F
:100A10006D337E2F3537793200407E2F353779326E
:100A200000427E7F3537695700127CAB6937000280
:100A30001E341E341E341E341E341E341E345E34E6
:100A400000037CB77E44000460053E441478FB7CC0
:100A5000290A220A3A12123D0A232D327CB77C6100
:100A60006C770A0B1E042D037907000C7C73AC72A3
:100A70000A2A12123D7E0F3537793000166D337E0B
:100A80000F35377930002222A9D6CB693000067E97
:100A90002F358A79320004693000087E2F358A7933
:100AA000320008297000027C476C55297000030A47
:100AB000372D327E2F358A7932000C7E0B707C47C1
:100AC000297000010A372D327E2F358A7932000ACB
:100AD000297000040A377E2F358A7932000E29B03A
:100AE000000554017C2B6C337E1F358A1B1A107E47
:100AF0003400C0120DA4A9C6CB22CA797CAB5EA07B
:100B0000036C777E5002AC5769D0000E69C0000CB0
:100B10002DD2296600010AF67D4F7C896C997DF4FF
:100B20007E6B600A462D4F7EF0F0ACFA2D277E7F5B
:100B300035772DF2794702540B70BE700E40C469B0
:100B40004000047EF0F0ACFA7E1F35772D377941F6
:100B500002506930000674F0A47E0F35772D1579A8
:100B6000300252DA7922A9D6CBC219693000047E4C
:100B70002F358A79320004693000067E2F358A7954
:100B8000320006693000087E2F358A793200087EEF
:100B90000B707C476C55297000010A372D327E2F6F
:100BA000358A7932000C297000020A377E2F358A87
:100BB0007932000E29B0000354010A5B7CABE47E5D
:100BC0001F358A1B1A506930000A120DA4A9C6CB22
:100BD00022693000AE7E2F35377932000629500069
:100BE000A60A557D231E249D257E2F3537792200A8
:100BF000187D231E241B257E2F3537792200386966
:100C00002000FD1E349D329E34000A7E2F35377938
:100C1000320026297000A70A377E2F353779320037
:100C20001A2970000B0A27297000042D327E2F35F7
:100C30003779320008020800CA3BF5247F417F3033
:100C4000E5257E080026120242E524BEB0232803D3
:100C50007524236CAA80360A3A2D397D287E1BB074
:100C6000BEB126400D74230A4A7F032D147A0BB0BF
:100C700080197E1BB00A3B2E35287A71827A6183F7
:100C8000E4930A4A7F132D347A1BB00BA0E524BCF1
:100C9000BA38C4DA3B22A9D6CB692000047E2F35AE
:100CA0008A79220004692000087E2F358A79220083
:100CB000087E0B500A557CABE4295000010A252D13
:100CC000257E2F358A7922000C295000020A257EC4
:100CD0000F358A7920000E7E0F358A7930000A6D33
:100CE000117E1F358A1B1A107E340040120DA4A9F4
:100CF000C6CB227CAB7E3400017E0F357B79300081
:100D00000EC218E47AB335765EA0030A1A3E147E4A
:100D10001F352F1B1A107E0F352F2E1400840B0A3F
:100D2000304E70201B0A3074011211A67E0F357BE5
:100D30000B0A304E700C1B0A30A9D3CD7E0F357BC9
:100D40000B150B0A304E70011B0A30227F10A9D6FA
:100D5000CB691100027E2F358A79120004691100D7
:100D6000047E2F358A79120006691100067E2F3520
:100D70008A791200087E1B300A037E140100AD1030
:100D8000297100010A372D317E0F358A7930000C28
:100D90006D117E1F358A1B1A107E340060120DA45F
:100DA000A9C6CB22A9D7CB7D234E50017E0F358A11
:100DB0000B0A304D321B0A30801E7E0F358A0B0A1B
:100DC000307D235E240008BE240008780BA9D7CB11
:100DD0004E70041B0A30D2197E0F358A0B0A307D03
:100DE000235E248000BE24800078CF4E60401B0A22
:100DF000306D117E1F358A1B1A1022CA3BF5247FE5
:100E0000417F30E5257E0800261202426CAA80361A
:100E10000A3A2D397D287E1BB0BEB127400D741CC7
:100E20000A4A7F032D147A0BB080197E1BB00A3B4F
:100E30002E352A7A71827A6183E4930A4A7F132DD0
:100E4000347A1BB00BA0E524BCBA38C4DA3B22CA02
:100E5000F87DE27DD37CFBBE300128067EF40010D5
:100E6000800FBE300028067EF4000880047EF40067
:100E7000047D1F6D006D337E2400101212DC7F0193
:100E80007D3D6D2212126F7D1E1212897404ACBF5B
:100E90007E0F35372D157930008279200080DAF801
:100EA00022CA7BCA6BCA5BCA4BCA2BCA1BCA0BC0FD
:100EB000D0C083C082D2187E0F357B0B0A307C579E
:100EC0007A5335764E700C1B0A30C2C66D337E0FD6
:100ED000357B7930000E1210EE127089D082D083EB
:100EE000D0D0DA0BDA1BDA2BDA4BDA5BDA6BDA7B8F
:100EF0003274031211A6A9D1C47E0F352F2E14000F
:100F0000840B0A304E70201B0A307E1400017E1FB5
:100F1000352F1B1A107E0F35370B160B0A304E700B
:100F2000011B0A30C20DE47AB335477E1F352F0B03
:100F30001A305E34000178F374020211A67C6B6CE7
:100F4000AA80177E9002AC9A7E7F35772DF40B7ABB
:100F5000207F702DF41B7A200BA0BC7A38E56CAA98
:100F600080207E5002AC5A7E7F35772DF2692700B3
:100F7000380AF70A4A2D4F3E447F702DF41B7A2021
:100F80000BA0BC6A38DC22CA797CAB5EA0036C770C
:100F90007E5002AC577F602DD2296600010AF67D93
:100FA0004F7C896C997DF47E6B600A462D4F7EF0F4
:100FB000F0ACFA2D277E7F35772DF2794702540B5E
:100FC00070BE700E40CADA7922A9D6CB543F5E704B
:100FD0001F7C2B6C333E143E142E1400050A373E42
:100FE000343E343E343E343E342D317E0F358A79E2
:100FF0003000027E0F358A79200014A9C6CB22FF6B
:10100000295000F5AC5B7E0F35376930000C0A566D
:101010003E54BE24020040047E2401FFBD25281F4B
:101020002E14000C6C661B0A301E247C456C557E09
:101030000F35372E14000C0B0A304D321B0A3022AC
:101040007C6B6CAA7E5028AC577E9002AC9A2D42E5
:101050007E50F0AC562D247E7F35772DF269270126
:101060008C6C440A4A7F602DD47E6BB07C8B6C996B
:101070004D247927018C0BA0BEA00E40C7227C6BAB
:101080006CAA7E5028AC577E9002AC9A2D427E50BE
:10109000F0AC562D247E7F35772DF26927018C6CBC
:1010A000550A4A7F602DD47E6BB00A4B4D247927B8
:1010B000018C0BA0BEA00E40C9227D236C667E3041
:1010C00002AC362E1415087A31827A2183E4930A11
:1010D0001BBD1228070B60BE601440E27E7002AC9C
:1010E000672E3415097A71827A6183E493227E0F28
:1010F000352F2E1400840B0A305E70DF1B0A30740B
:10110000031211A67E1400037E1F352F1B1A107EBA
:101110001F352F0B1A305E34000178F3E40211A65C
:101120002E3404007E0F3537793000607E340400A1
:101130009D327E0F3537793000627E3400017E0F9C
:101140003537793000640A3B7E0F353779300066D9
:10115000227CA5BE34000028100A1B3E147D237C8F
:10116000456C552D210A3A80080A2B3E247C676C79
:10117000772D327E0F357B79300004227CA77E1FCD
:10118000352F6941008A5E44100F0A1A3E143E143E
:101190003E143E140A5BC42354E07CABE42D514D55
:1011A000457941008A227E0F352F693000845E70B8
:1011B000E71BB1680C14680C0BB178054E701080F9
:1011C000034E700879300084227E34001F7E0F3574
:1011D0003779300004A9D2CD7E0F35370B0A304E57
:1011E00070011B0A302230040A54030A3B2E3402D9
:1011F0000080026D337E0F35377930003A227E0F42
:10120000352F6930008A60054E601080035E60EF04
:101210007930008A22BEB0002809A9D6CAD2CDA949
:10122000D1CB22A9C6CAC2CDA9C1CB227E34000F20
:101230007E0F353779300004C2C3D2EB22C2D57C91
:10124000B430E708B2D56E24FFFF0B247CB630E73C
:1012500012B2D56E34FFFF0B348D326E24FFFF0BBC
:101260002480028D3230D5066E34FFFF0B34227D90
:1012700051AD037D027D21AD052D12AD352D21220D
:101280007D02AD31AD102D21226D0074104D00781E
:101290000B4D2278278D317D126D22227D437D32C8
:1012A0006D222F112D445002A50FBF1040049F1036
:1012B0000B901478ED7F016D227D34227D417D13EA
:1012C0008D247D022F004004BD0440049D040B14B6
:1012D0001478F17D237D317D106D0022C2D57CB064
:1012E00030E708B2D59F229F207F027CB430E713FD
:1012F000B2D59F229F217F1212128B9F229F207FA7
:1013000002800312128B30D5069F229F217F12226A
:101310006CAA4D11681A1E54680E0B38201B182039
:101320000B350B151B5478F250067E39407A194064
:10133000226CAA4D11681E1E54500C7E1B007A1997
:101340000068120B1C0B140B1A001B18000B1D0B52
:10135000151B5478F2220405060708090A0B0C0D28
:101360000E0F1011121314151617030405060708A3
:10137000090A0B0C0D0E0F10111213141516171865
:10138000191A1B060504030201001C1D1E1F202143
:1013900000000001020304050607081C1D1E1F2093
:1013A0002122000102030405060708090A0B0C0D9F
:1013B0000E0F101112131415161718191A1B00010D
:1013C00002030405060708090A0B0C0D0E0F101185
:1013D00012131415161718191A1B1C1D1E1F202175
:1013E0002200010101101C02101C000101040F1C4D
:1013F000000101061B0F070E1C0823150001010A3E
:1014000010190B141C0C0F180001010E23150F0DE1
:1014100019000101110D14121019131C10141A10C7
:1014200015101916231C72231573231C74231C75A5
:101430000E1C7584017E443FFFE47A49B01B44785A
:10144000F97EF83596750C00750D00750E02750F56
:1014500000C206C207755700755200C20EC20FC205
:1014600011755800754600754700754800754900AC
:10147000754A00754B00D208C209755900751400F1
:10148000751500C212C213755A00C20AC20BC214EB
:10149000C215C216C217755B00D200D201D2027506
:1014A0005C00D218C20CD20D7E0400FF7E1415A978
:1014B0000B0A405D44681A692000020B0E0B448041
:1014C0000A7E0BB07A29B00B240B0C1B4478F280F7
:1014D000DF0230000000004700CB01000010FDC714
:1014E000FB7EFBFB01BB0C9E19002145000E010F8A
:1014F0000210031104120513061407150816091724
:101500000A180B190C1A0D1BDF22C321A920941FE6
:10151000811E701D621C551B4A1A4119381831175B
:101520002B16251521141C13191216111310110F47
:10153000100ECAF87F20800A7E1BF07A2BF00B3445
:101540000B5469FFFFFC7DEF1BE479EFFFFC4DFFBF
:1015500078E67F10DAF8227D437F1080071B447AFB
:101560000BB00B144D4478F5220563312018130F8E
:101570000D0C0A09080706050414010A010002FB04
:1015800004F605EC06E707E208FF00010200FF0190
:10159000020001FF02000102FF7D23BE240000487B
:1015A000037D32226D339D322200042BC6000000E1
:1015B00000000103FF01000A356200DC00A000FA10
:1015C00000FA00FA0001138F01000113CC000001A2
:1015D000144700000114A300000118AE000002002F
:1015E000530FE8000234B7000000012CCC000001CA
:1015F0002DD1000001359200000134BD01000135FC
:1016000089000001359404000A008F0000000000EA
:1016100000000000000014011E0000000000000097
:1016200000000000000000000000000000000102B7
:10163000CC00000102CD00000A02F600000000000C
:101640000000000000000A0300000000000000008D
:10165000000000000A030A00000000000000000073
:1016600000000A0314000000000000000000000059
:1016700002356C00000002356E000000013570007C
:1016800000013571FF000235720000000135740061
:1016900000012EEE0100012EEF000002358E000049
:1016A00000012994000001299500000229960000FC
:1016B0000001299800000429990000000000042975
:1016C0009D0000000000022BC0000000010320016B
:1016D000000103E200000103E300000103E4000055
:1016E0000103E500000103E600000103E70000013B
:1016F0002FFF0000012FEA0000012FEB64000135ED
:101700005F00000135600000013561000002359086
:101710000000003225D41A18161412100E0C0A08F4
:101720000604020000000000000000000000001B92
:1017300019171513110F0D0B090705030100000000
:101740000000000000000000000E29860C0B0A09B2
:101750000807060504030201000000012DD6FF0062
:10176000012DD70100282DD83D046640503D046668
:1017700040503D046640503D046640503D04664084
:10178000503D046640503D046640503D0466405064
:1017900000012E300000012E3100001C2E32646446
:1017A00064646464646464646464646464646464F9
:1017B0006464646464646464646400232E4E969676
:1017C00096969696969696969696969696969696B9
:1017D00096969696969696969696969696969696A9
:1017E0009600012E740000042F500000000000013C
:1017F000357F0000013580000002358100000001C6
:101800003583640001358400000135950000013501
:10181000960000043577000050000004357B00007E
:1018200064000004352F00006C0000043533000014
:1018300068C0000435370000680000043548000027
:1018400040000004358A000060000000028203733B
:1018500006690769085F09610B660C610D60FF008E
:101860000000000000000000000000000000000078
:101870000000000000000000000000000000000068
:101880000000000000000320000E01C201C2000D94
:101890000154017C000D0118012C000C00C800C887
:1018A000000C00640078000A000A003C00020000FE
:1018B0001010101010101010101010101010101028
:1018C0001010101010101010101010101010000038
:1018D00000000000000000001228EE12562A124FED
:1018E000DC1255AA12196112192C124C370218F089
:1018F0001219017EB319A112A8BA74017AB3032494
:101900002212AA0574017AB3032022121990123010
:10191000221232E41228EE121990121961125FA1FC
:1019200012192C124C3712582A0218F0127804128D
:1019300019760219357E3400036D2202193E7D436B
:101940007EA303E8BEA00550167E7004AC7A59430E
:1019500003EB592303ED7CBA047AB303E8C322D323
:1019600022121D8812567802196A30110812572265
:1019700012569EC211226D337E24064812193E7EF5
:101980003400017E2406A802193E74017AB334643F
:101990007E340DAC6D227A272FEC7A372FEE22CAD7
:1019A000D8CA797DD3906050E4937CFB906051E479
:1019B000937C8B0A380ACF2DC30BC47D3C7CE71285
:1019C0001990A9D0C4A9D5CB7407121BDC7C8B74E9
:1019D000077E700F121BCD7E5400787E1F35337941
:1019E0005100067E5400807E1F3533795100087EF9
:1019F00054000C7E1F353379510010BED40002789C
:101A000007121B6A4401801C121B6A44081B1A50EF
:101A10004DDD7E1F35337807121B6E54FB80051297
:101A20001B6E44041B1A507E1F352F69E100846928
:101A30005100907DF52E3400905EA0F61B1A507E6A
:101A4000B32F22BEB0064003B4FF0E121B7954E63A
:101A5000121B764E5401A4800C121B795E54FEE6D4
:101A6000121B7644A41B1A50BED400027821121B0C
:101A70006A12B4AB121B6A44501B1A507E34000227
:101A8000121ED3121EAC121E897A372BCA61266C25
:101A9000DD61204CDD78046C99802BBCFD40120A7E
:101AA000CD099C194ABE902340037E90220B908062
:101AB000150A3F0ACD9DC3099C196DBE901C4003B9
:101AC0007E901B2E9024121B6A12B4AB0AC93EC42E
:101AD0003EC43EC43EC4121B6A4D5C1B1A50E50E48
:101AE0006007E50EBEB06428067E3400028004E57F
:101AF0000E0A3B121ED3121EACBED4000178101287
:101B00001EAC121E897402ACBD59352BCC800F124D
:101B10001E890A5E0A2D2D253E2459322BCC0BD06E
:101B2000BCED28024193A9D5CB74077C78121BCD5C
:101B3000A9C0C47E1F352F79E100847E1F352F791F
:101B4000F100906D337E0F3533793000067E0F350E
:101B500033793000087E0F3533793000107E0F3531
:101B6000337930000EDA79DAD8227E1F35332E34FD
:101B7000000E0B1A50221B1A507E1F352F2E3400D8
:101B8000840B1A5022F5FD7A71FE22A9D5CB74027E
:101B90007E703F121B85740F121BDC7C7B740F5E02
:101BA00070FE121B85740C121BDC547F6808740CC9
:101BB0007E70F8121B857E7082740E121B8574076E
:101BC000121BDC7C7B5E70FB7407021BCD121B8535
:101BD00075FDFFA9C5CB22A9D5CB740EF5FDE5FE99
:101BE00022E50C700281EBE50C30E010530CFE1284
:101BF00054F41268747E0818FF120800E50C30E1F6
:101C000006530CFD125526E50C30E232530CFB7ED8
:101C1000B319A460097E0818FF120564800B7EB317
:101C200019F77E7319F6120A0C7E7319A42E70FF31
:101C30009204906051E4939EB3190912097DE50C5A
:101C400030E337121DB2530CF77E7334927A731956
:101C5000A11251E1121FB27E733493BE7319F4685E
:101C6000067A7319F4D20E300E071254C7E4120824
:101C7000C5121D8E12190112A8B6E50C30E40F53DF
:101C80000CEF7E4334947E500AAC45122924E50CB7
:101C900030E649530CBF7E733480BE70072806744B
:101CA000077AB33480121BD77C7B5E700F7E63345F
:101CB000800A262E240003123C947C654C76740E18
:101CC000121B85121BDC121BD07E7334837A7319AE
:101CD000A67E7334827A7319B112B49AE50C30E59A
:101CE0000A530CDF7EB3346A025062227AB3348026
:101CF000121BD77CAB5EA00F7EB334800A3B2E3420
:101D0000000312B42B7CB74CAB740E7C7A121B858B
:101D1000121BDC021BD06D337E0800247E240012CF
:101D200012316AE53420E71BA9D5CB74037E7127F5
:101D3000121B85740B7E712F121B85740C7E713003
:101D4000121BCD2230063BC206121DC37E733465C2
:101D50007A7318DF7E7334667A7319AF7E733466D4
:101D60007A7319937EB3346760187E3400021219B7
:101D70009F7E34000112199F6D3312199FE47AB3CC
:101D800034671226DC021BE1121DB2121F6712AD6E
:101D9000276003021DB2740E7AB318FF7419021D76
:101DA000A17AB31900740E7AB3190174197AB319B0
:101DB0000222906050E4937AB318FF906051E4934C
:101DC000021DA1CAF87EF33464BEF005780B7401DD
:101DD0007AB3346412005A8023BEF004780D1219CD
:101DE0008AE47AB31994121D888011BEF006781225
:101DF00012198A12544912567312B49A74027AB3A1
:101E00003464DAF822CA3B7CDBE47AB319A6121FE9
:101E1000AF7EC00A121DB2E412000E12711712003A
:101E20004660FB740112000E124A947D73BE74FF6B
:101E3000FF7809121E7D2E3400038018BE748000C6
:101E40002807121E7D0B35800BBE744000280C1233
:101E50001E7D0B341B0A301BC078B9121D8EBED0FC
:101E60000178097E340B80126F117D737E1F353728
:101E70006931001A7A7319A67D37DA3B227E0F3555
:101E8000372E14001A0B0A30227E0F3533693000CA
:101E90000A7D236D336910000C6D002F1074071E2E
:101EA000341E2450034E60801478F4227E340001E6
:101EB0007E0F3533793000047E0F353369300012E0
:101EC0005E34000168F27E34000179300012227E17
:101ED0003400017D2380127E3004800574FA1226BE
:101EE000347C231B30A5BA00F37D321B244D33789C
:101EF000E62212B4CAC20312AFC5C205122549C2F6
:101F00000312B0BEA9D5CB740F121BDC7A1BB074C0
:101F10000F6C77121B85E5FC7A0BB043FC10021B9B
:101F2000D024AB681024EF681C24DE682624DE78F9
:101F30002F7405802D7EB303FFB4052A121ECF1225
:101F4000AF7D02B0A07EB303FFB4051A121ECF7599
:101F5000E9FF227EB303FFB4050C121ECF02B09A34
:101F600074017AB303FF227EB3199470411277F99A
:101F700050FBE46C776C66121FB97E0806487E1F22
:101F800006407EB31A0412223E74017E70017E6008
:101F900001121FB97E0806A87E1F06407EB3134DAE
:101FA00012223E74027AB31994E47AB313482212CF
:101FB0001DB27E0818FF020BD17C967CA71226A4C6
:101FC0007CBA1211FE740A1226347CB912001E0269
:101FD0001FD2CAD8CA797EF3198C74017AB3198CCE
:101FE00012229D12B489124C287E1719906D00128E
:101FF00015577EE0071257ED6CDD80197E34000125
:102000007CBE60053E341478FB7C671220FC4C7665
:102010007A29700BD012210648E212219212000692
:1020200060FB1226016CDD80297402ACBD493506C7
:1020300048BE34154050197E3400017CBE60053E18
:10204000341478FB7CB764FF1220FC5C7B7A297027
:102050000BD012210648D21BE0BEE0005897122197
:1020600019740212B4A312207A740212001E7AF3B9
:10207000198C12229DDA79DAD822CA797CFB7E0883
:10208000254612B1747EA319057E7319066CEE8085
:102090001D0A2E0962196E0A2612450F7C6BBE605E
:1020A0001C50090A2E1220F219B225460BE0BC7E04
:1020B00038DF6CEE801A0A2E0962194BBE6023507D
:1020C0000D0A1E0A272D211220F219B225620BE0FB
:1020D000BCAE38E26CEE7E300EAC3E2E1425466D62
:1020E000007CBF7C7E1210400BE0BEE00540E7DACA
:1020F00079222E2719907E29B00A26220A2D2E2712
:1021000019907E2970227E7319060A377E531905AD
:102110000A252D230A3DBD3222CAD8CA797EF00A8B
:1021200074017AB3198C124C287CE780581257ED51
:1021300012219212000660FB1226016CDD803D7EAA
:102140005002AC5D49320648BE34147850140A1D62
:102150002E1719907E19B0BEB000281E147A19B03F
:102160008018BE34192828100A3D12B434BEB0FFBE
:102170006808047A39B080021BE00BD012210648AF
:10218000BE4CEE68087CAF1BF04CAA78A0DA79DA76
:10219000D822740212001E7EB3198E12207A7402A5
:1021A00012001E7EB319927E709B1221E61221B797
:1021B0007EB3198E020CF36CAA80220A3A097319B5
:1021C0006E2E3414EC128ED77C7B0A477E5002AC04
:1021D0005A7E0F352F2D12794000480BA07E6319CF
:1021E00006BC6A38D6227CAB7E60054CAA78037E9A
:1021F00060047CB602117CCAF87CFB7ED7199FBEB6
:10220000F0012803E480347CBF1245024CFF780CB7
:102210007EC7199F5EC4003F7AC7199F12229D7A1C
:10222000D7199F7E73198C0A373E343E34E47E50B2
:10223000011211517CBF1221A77401DAF822CA3BA6
:102240007CEB7F517F407EF319067F047F15126F70
:10225000C412B4B37ED0041221A312000660FB7432
:102260000212001E7F0412260A6CCC801C122384EA
:102270000B1A201E241E247402ACBC7F052D150BE6
:102280000A302D321B0A300BC0BCFC38E01BD07862
:10229000C67F057CBE7C7F128D02DA3B227E081849
:1022A000FF02045ECAD8CA797EB32F16B401028039
:1022B00002617F6CDD6CFF128E887D431277F950CE
:1022C000FB74017AB334BD1226A41211FE12001E53
:1022D000740A12263412B4897E57199F7A55247EC7
:1022E000E3198C74047AB3198C7E57199F5E5400DD
:1022F0003F7A57199F7E340006AD341E341E347A5F
:1023000037199912229D1257ED740F128EC774055A
:102310007E709B12117C1221AD800F8007122582E6
:10232000E41225BA2093F61225523018F73017F42C
:10233000D204122538E41212150BD01289F1128E34
:10234000E07EB334BC700674017AB334BD7E73355D
:10235000760A375E340002680A7EF001E47AB32F11
:10236000168005BED032409EE47AB319967E35249D
:102370007A37199F7AE3198C4CFF6803124C37DACD
:1023800079DAD8227402ACBC7F142D3522CA3B7F87
:1023900050906050E493F532906051E493F5337EB1
:1023A0003418B07E2400FF7E1425B6740F1213314A
:1023B0007E3418BF7E2400FF7E1425C5740F1213CF
:1023C000317E082546128CB37E08257E7E34003887
:1023D0001215576CDDA12D6CFF6CEE6DFF906051F6
:1023E000E493ACBD3E547F452D956CCC80251223E3
:1023F000840B1AE07CBC20E00D7CAF0BF07402A4CF
:1024000059E52546800B7CAE0BE07402A459E52506
:102410007E0BC0E533BCBC38D57E0825467CBF1298
:1024200098967E08257E7CBE1298961EF01EE0745B
:1024300002ACBF493525462D33492525442D234976
:102440003525482D327E1400047D2112123D7D4336
:102450007402ACBE4935257E2D334925257C2D23BC
:10246000493525802D327D2112123D7DF3BE440178
:102470009008067E44019080107D542E540190BE39
:1024800054000058047E44FE70BEF4012C08067E01
:10249000F4012C80107D5F2E54012CBE5400005896
:1024A000047EF4FED4BE4400000811BE44001E5851
:1024B0000B7E2400027D3412123D7D43BEF40000E9
:1024C0000811BEF4001E580B7E2400027D3F12123C
:1024D0003D7DF36CCC804E0A1C1E14097125B61A82
:1024E00037AD347EE400107D2E12123D7A3534096A
:1024F0007125C51A37AD3F7D2E12123D7A35367CD7
:10250000BC20E00B1223840B1A307E253480091284
:1025100023840B1A307E253612AD337DE3122384DB
:102520001B1AE00BC0E533BCBC38AC0BD0E532BCA9
:10253000BD280261D7DA3B2230040612269C02072E
:10254000E612B4CAC205022549A9D0CEA205A991B6
:10255000C922301805C204122538A9D1CDA9C5EA6F
:10256000301703201814122582A9D0CEA9C4C9742B
:10257000021225BAA9D0CEA9D4C9A9C1CDD20402CC
:10258000253874817AB3357F22801D122582128E00
:102590006E6805C2041225387EB303EABEB0026835
:1025A00018201715E41225BA2093E0122582A9D12C
:1025B000CDA9C5EA74020225BA227CAB7EB3357F71
:1025C000B481384CAA7805A9D0878029BEA00178AB
:1025D0000FC2AFA9D0CEA9C7C9A9D187D2AF8015E4
:1025E000BEA0027816C2AF209309A9D0CEA9D7C940
:1025F000A9D187D2AF000000000000E47AB3357F94
:1026000022740212001E7E0806487EB319057E73EE
:102610001906120F3D740202001ED203801230030D
:102620000C128E6E6807C203C20412253812258967
:102630003017EB227CAB800E7E70038001007C673C
:102640001B70A5BE00F77C6A1BA0A5BE00EA221283
:102650002582128E7675CD00A9D6EBA9D7CDC2CE34
:1026600012B480121EF274011225BAA9C6EBA9C7D2
:10267000CDD2CEE5257E712402267B7C6BA9D5CBFD
:10268000740F121B857A61FC121BD01232AAD2037E
:1026900012B0BE12269C1212150207E6D2051225B0
:1026A000497401227AB3199270141243A31226D3EB
:1026B0007E1805E07A1F06407E1804608010B40181
:1026C0001112439A1226D31266B87E1804007A1F9C
:1026D0000644227A1F198E7A0F198A22E50D60525C
:1026E000E50D30E006530DFE12229DE50D30E1149C
:1026F000530DFD7EB334A4700474018001E412B460
:10270000A312B0FEE50D30E229530DFBE47AB33499
:10271000A57EB334A4700A740112001E1243A38074
:1027200007E412001E12439A1226D37EB3198E02BA
:10273000207A22740112001EE41226A412274BE410
:1027400012001E74011226A402274BCA3B7ED31925
:10275000057EC319067E0820F612B1747E08213C5E
:102760007E3400461215577E0821821259AC7E082D
:10277000218C1259987EF3198E7E18196E7A1D24B9
:102780007E1821827A1D287CBD7C7C7E08194B1224
:10279000B1A76CEE802B0A3E09A3196E0A3A2E34BB
:1027A00014EC128ED77CABBEA01C50130A3E12B4A0
:1027B000340A4A19B420F67EB3198D19B4213C0BA2
:1027C000E0BCCE38D16CEE80240A3E09A3194BBE82
:1027D000A02350170A2E0A3C2D3212B4340A4A198B
:1027E000B421127EB3198D19B421580BE0BCDE3828
:1027F000D87EB3198F7E08219660097E1821821237
:102800003BD3800312285A6CEE7E1821967A1F2043
:10281000E67402ACBE493521827A3720EA7402ACF4
:10282000BE4935218C7A3720EC7E700EAC7E2E347A
:1028300020F66D227A1F20EE7E700EAC7E2E3421A3
:102840003C7A1F20F27E0820E67CBF7C7E120716B1
:102850000BE0BEE00540B2DA3B227E340008E40221
:102860001557CAF8906051E4937CFB7E0820E6126D
:10287000285A7E0820EE12B451D2037E08196E7CCD
:10288000BF12B17D7E0820E67A0F210A7F017A17F8
:10289000210E7D327A3721107E1820EE7A1F211604
:1028A0006C77800E12B447500712B46E195120EEA7
:1028B0000B70BCF738EE1228DBE41228E3E4120AAE
:1028C000FA6D337A37210E7A3721101228DB740122
:1028D0001228E37401120AFADAF822A9C6EA7E087D
:1028E000210A22120AFAA9D6EA7E08210A227401D4
:1028F0007AB32F181254C912122C122862E412084B
:10290000C57E2403D412292474011226A412B4B360
:102910007E34D00C12010E1227337E340001E46C99
:10292000550211517D3274FA0211201244F91244F9
:10293000F06D337A350A1250591250F01250CB74A0
:10294000507AB334947E240320122924E4125FA326
:102950006D337A3735812212292B7EB32F18B403B9
:102960007512B0C91257ED121D44E50F7003E480D3
:102970000274017E7001124FEB7EB3346030E7DAEF
:10298000124B17124C283E34CA397E1804007E08B8
:1029900004C01215321BFD7E7319060A373E34CA75
:1029A000397E1804607E0805201215321BFD7EB3A7
:1029B00019AFB40112128C76126402124F0E126B10
:1029C000B01229E51247F71250377EB33460547FB6
:1029D0007AB33460808412B26B1200570229DFE4AC
:1029E0007AB334B422127BBF122E03122E03129E2E
:1029F00003122E0312A0E9122E031298E1122E03E5
:102A0000122F791246B1122E031297F7122E0302DB
:102A10002A12CA3B6DAA7AA5247526006CCC7EA426
:102A2000FFFF7528FFE47AB3215E752CFF752E7FBA
:102A3000752F007E73186A7A73144712A01B7A35BB
:102A40002A7EB31900F5297ED316F57E4F0FE40ACE
:102A50003D3E34CA397E18156B7E0820E6121532C9
:102A60001BFD7EB3186AB40347BED00328426CFF37
:102A7000803A6CAA6CEE802EBCFE68287E7002AC98
:102A80007E09B320E60A2B122F34122E4BBE3400DF
:102A90000118110BA0BEA003400A122F34F52E75A9
:102AA0002F0180060BE0BCDE38CE0BF0BCDF38C255
:102AB0006C996CEE819B7EF403FF7EC0FF6CFF611E
:102AC000787402ACBF09B520E6BEB0FF780261762B
:102AD0007CBF122F5D70026176122F557402ACBF5D
:102AE000098520E70A287402ACBE0985140C122F50
:102AF000E87CB7F52D7402ACBF098520E60A28747E
:102B000002ACBE0985140B122FE87C870AC8E52D9C
:102B10000AEB2DEC7DCE7E552ABD5D2819BEC40082
:102B20000350137D3D3E347CBE3EB024160A2B0B71
:102B30002850BD531840BDFC403CE52DBEB00350AD
:102B400005BE80034006BEE40005582ABDFC781F80
:102B50007DFC7AE127BEC0FF68107CBC122F48BD07
:102B60003D58077AC1287CCF800C7AF12880077DF8
:102B7000FC7CCF7AE1270BF0BCDF280241C1BEC04C
:102B8000FF780281967EE43FFF0A3E0B347C87800B
:102B90002F7402ACBC097520E70A277402ACB8098F
:102BA00075140C122FEF7DC312B43C7402ACB8093B
:102BB00075140B122FEF2DC3BDEC28027DEC0B809A
:102BC0007E731447BC7838C9BDFE280281967E709A
:102BD00002AC7C09B320E6097320E712376D7DD380
:102BE0007EB31719B401087E37170CBD3D48046049
:102BF000028199E5277E3400017D2360053E24147F
:102C000078FB5D2A68327E5002AC5C091220E67EB9
:102C1000A3215E7E3002AC3A1911212209B220E7CD
:102C200019B1212374FF19B220E6122F3EE5276067
:102C30005B3E341478FB8054E52FB4011412B43C8D
:102C4000E52E122E4BBE34000118067EB403208000
:102C5000037EB52ABDBD50417E7002AC7C09332095
:102C6000E67EA3215E7E5002AC5A1932212209B3BE
:102C700020E719B2212374FF19B320E6122F3EE595
:102C8000277E34000160053E341478FB7E54FFFF3C
:102C90009D535DA580037AE12C0BE07E731447BC45
:102CA0007E280241B67CE9A15B6DAA7AA5247E90BC
:102CB000FF6CFF80567CBF122F5D604D7E7002ACB2
:102CC0007F09A320E6BEA0FF683FE529A409832071
:102CD000E70AA82DA57D2A3E247F042D120B0A2089
:102CE000BE240000580B6DDD3EA47F142D3A1B1A44
:102CF000D0122F557EA524BDAD580E122F34F526C7
:102D000009C320E77AD5247C9F0BF0BCDF38A6E509
:102D10002FB40115E5260A2BE52E122E4BBE3400EA
:102D20000118067EB4032080037EB52ABE90FF689A
:102D300028BEB52450237E81267EA3215E7E7002AC
:102D4000AC7A1983212219C321237E80FF7E700271
:102D5000AC79198320E6122F400BE0BEE00550024B
:102D600081A990609A12B4BACA597E1821227E08AD
:102D700020E61215321BFD7ED3215E7E08140B7EE9
:102D800034000A74FF121557BED00028640AAD3E05
:102D9000A4CAA97E1820E67E08156B1215321BFD09
:102DA0000AAD3EA4CAA97E1820E67E08140B1215AF
:102DB000321BFD7E0800161259AC6CEE802F7CBED3
:102DC000122FE27E9002AC9E09A420E6E529A40918
:102DD0007420E70AA72DA53EA47F142D3A0B1A30C4
:102DE0007CBE3EB024160AAB1BA8300BE0BCDE381C
:102DF000CD7AD316F5127F6C280674057AB316F5D2
:102E0000DA3B22CA796CFF6CEE802E7CBE122F5DFD
:102E100060257E340002CA39AC7E2E34156B6D22DB
:102E20007E3002AC3F2E14156B6D001215321BFD67
:102E30007CBF122FE20BF00BE012A20538CD7AF323
:102E400016F5DA7922E5270A2BE5290A3B9D32029D
:102E50001599CA3B6CFF7EE319017ED319026CCC35
:102E6000E1237E7002AC7C09A3156B7AA12709B31C
:102E7000156CF5287525027526024CAA680C0A2ED9
:102E80001B24E5270A3BBD324803752501E5286070
:102E90000C0A2D1B24E5280A3BBD32480375260188
:102EA0007524008056E524BCBC684E7E712412B4A3
:102EB000770933156C0A2AE527122E4BBE3400031E
:102EC00018150A23E528122E4BBE34000318087586
:102ED0002501752601802D0A2AE527122E4BBE34C6
:102EE000000518150A23E528122E4BBE34000518DC
:102EF00008752502752602800B05247E2316F5BE73
:102F0000212438A17CBC7E7126128048F529E52554
:102F10007E71267C6C7C5F126C4BE5291280120B53
:102F2000F00BC07E7316F5BC7C2802C1627AF316E2
:102F3000F5DA3B227E7002AC7F09B320E6220B90CB
:102F40007CBA047AB3215E227CAB7E7002AC7A122A
:102F50009F9A02376D7CBF122F487DD3227C7BC4A1
:102F600023541F0A2B09A215E37CB754070A3B2EF2
:102F700034005E128ED75CBA227EA316F54CAA7876
:102F80000C74FF7AB335716D337A3735727EB318AE
:102F90006A704EBEA0017849E4122F487E2718ECD3
:102FA0001E241E242E2718ECBD3218357EB3156B57
:102FB0007E33156C7C7312ACA17EA33571BEA0FF6D
:102FC00078067A3335718010BCA378157E27357268
:102FD0002E240028BD2358097A373572E47AB316B7
:102FE000F5227E70010246720A389D320215990A56
:102FF000379D32021599E47AB319947AB319B02245
:103000001230221237A91232E41218D87EB32F18C8
:1030100024FD68090BB178F4123CEE80EF122957B9
:1030200080EAE412327912B03C1257ED12B0B712B6
:103030001B8B12AF7312B05312007112B05F1232B9
:103040000712B06FD2AF12AFCE12306C121D161233
:1030500032AA7E082FF0123253906050E493CAB81F
:1030600012B4C27E24FFFFDAB8020FC9D2C843ED02
:103070000FC2EA75B313A9D1B4A9C0B41231F7E4F1
:1030800012308F023086A9C5CAE47AB3359522CAB8
:10309000F87CFB740212310E4CFF78055E70DF8005
:1030A000034E702074021230B0DAF82274067D30BC
:1030B0007D237C6B0A147C737D527CAB7EB335958B
:1030C000B4A53C1231A275B501A936B3FC12310783
:1030D000A936B3FC123107A936B3FCA9C6B37A618D
:1030E000B5A936B3FCA9C6B37A71B5A936B3FCA9A4
:1030F000C6B37AA1B5A936B3FCA9C6B3A9D2B42286
:1031000074047D300230B0A9C6B375B500227C6B63
:103110006C776CAA7EB33595B4A5461231A275B50D
:1031200005A936B3FC123107A936B3FC123107A941
:1031300036B3FCA9C6B37A61B5A936B3FC12310720
:10314000A936B3FC123107A936B3FCA9C6B37E7108
:10315000B575B500A936B3FCA9C6B37EA1B5A9D291
:10316000B47C476C550A3A4D32227D427F607D0324
:103170001231F7740212310E7DF34EF400014EF459
:10318000000A12319B7A45367D306D227F0612315E
:10319000B35EF4FFFD12319B02308674027D3F0264
:1031A00030B0A9C2B4A9C6B322740612310E7D0391
:1031B0006C11221231C17E353612B0E2A9D2B4D3DD
:1031C000227D52F53A7CB67CA50A44F5397F21F57B
:1031D00038A9C2B4740B1231ECE53A1231ECE5397E
:1031E0001231ECE5381231ECE40231ECF5B5A936D8
:1031F000B3FCA9C6B3D322A9D5CAA9D1EAA9C1EA09
:1032000074A57AB3359522E47AB334607E082CFB3A
:10321000125F8E7E082D397E34003E1215577E18BF
:103220002CFB7A1D4E12006602322B755500755626
:10323000007EB33460F59122906000E49354FE75F3
:103240009100C290C291C2C954FEF592D2E8C2C0A8
:10325000D2AD22D2C975F23075F38075F40C75F5D4
:10326000016CAAE5F55480B480F9E5F6125F970B7E
:10327000A0BEA00D40EDC2C922A9C4CAA9C5CABE3C
:10328000B0085003128E7FA9D0CEA9C0C9D20512B2
:103290002549A9C2EA75C10675C20CD20312B0BE97
:1032A000A9C1C4A9D2C4A9C2E122CAF8A2AFE43319
:1032B0007CFBD20312AFC5A9D0CBC2AFA9D09E75FB
:1032C0009D00A9D09E759C20A9D09EA9D49EA9D06E
:1032D000CD7441122634A9D09EA9D79E2EF0FF921C
:1032E000AFDAF8221266D61252B41200421266B851
:1032F0007E1804007A1F06447E0F06447E1F064097
:10330000126FC47E1807207A1F0FE07E180B807A98
:103310001F0FE47E0F0FE47E1F0FE01268C1120042
:103320006E12630812683C125E2F1278040233306A
:10333000CA797EF00E7EE0197E0826067E34038070
:1033400074FF1215576C3380436C2280390A330B9B
:10335000341233E6091329867CB354036803B4019D
:10336000080A3209A325D480060A3209A325ED7E76
:10337000901CAC920A332D437D343E34191326063B
:1033800019A326070B20BCF238C30B30BCE338B9B5
:10339000DA79227E3400C87A3717067E3400967AAE
:1033A00037170A7E3400647A3717081266CA7A37EC
:1033B000170C7E3400507A37170E7E34002D7A3782
:1033C00017107E3400027A3717127A3717147445B3
:1033D0007AB31716E47AB317191237743E347E089D
:1033E0001390E40215577E24000202123DCAD8CA87
:1033F000797CFB7537007EB31901F53C7EB3190269
:10340000F53D7ED316F5E47AB32FAD7AB32FAB7AC0
:10341000B32FAC7E0820E6123774E412155712372A
:10342000743E347E082FAEE4121557BED00250020F
:10343000E1636C99E1527E7002AC79129FAC4C99B9
:1034400068080A3909B320E6700C0A390B347C8706
:103450000A59198520E67CBD14BCB97802E1580AE6
:10346000590B54F52EE1497E712E12B4777AA126BC
:1034700009B3156CF5270A2AE524122E4B7CB7F503
:1034800028E5270A2BE525122E4B7CB7F529E528E0
:10349000BEB0044002E147E529BEB0044002E14766
:1034A0007537006CEE7530007CB9122F487DB3E59E
:1034B0002E122F487DA32D3B1233E67A35407E082D
:1034C00000317E18003312AACDBDBA08047D3A80BF
:1034D000027D3B7A3535BE34012C08046D888008A6
:1034E0007E35351298DA7D83E528BEB0013828E5AF
:1034F00029BEB00138217CBF30E11CE52612378699
:103500007DF3E5247E712712376D2D3FBD381802FB
:10351000C1E2753001C1E2E528BEB0013809E529F4
:10352000BEB0013802C1E2E528BEB0044002C1E2EB
:10353000E529BEB0044002C1E27CBF20E002C1E246
:103540006D99753E00C204C205E526BEB12428046B
:10355000E5248002E526F52AE526BEB1245004E5DF
:10356000248002E526F52CE527BEB1252804E525B3
:103570008002E527F52BE527BEB1255004E525801F
:1035800002E527F52DE52CBEB12A7829D204E52ADB
:103590006008E53C14BEB12A7802D205E52ABEB027
:1035A000002802152AE53C0A2B1B24E52C0A3BBD0A
:1035B000325802052CE52DBEB12B7829D204E52B1B
:1035C0006008E53D14BEB12B7802D205E52BBEB0F4
:1035D000002802152BE53D0A2B1B24E52D0A3BBDD7
:1035E000325802052D852A38804C852B39803EE5DE
:1035F000387E713912376D7A353AE52ABEB13868AE
:1036000015E52CBEB138680EE52BBEB1396807E56B
:103610002DBEB13978097E353A2D93053E800C7E5A
:103620003533BE353A580205370BE00539E52DBE76
:10363000B13950BB0538E52CBEB13850ADE52C7E14
:10364000712B12376D9D93E52A12377B1237689DD7
:1036500093E52C12377B7D8A2D8B30043320053087
:103660009D98153E153EE52C9EB12ABEB002680815
:10367000E52D9EB12BB40218E52A047E712B0B7048
:1036800012376D7E240003AD321233E62D93053ED2
:10369000E53EBEB0042806E53E24FCF53EBE94009F
:1036A0000058026D997D181A021A00126E8A1212C1
:1036B0006FE53E0A1B6D0012126F7F717D391A266D
:1036C0001A247E140023121280BF170815E5370A4A
:1036D0003B0A2E9D233E243E240A3EBD231803753B
:1036E0003002E530BEB000285EE5300A3B2E342FB4
:1036F000AA126F01E52E0A3B09A320E64CAA780C1A
:103700000A2909B220E619B320E6803B0A2909B24A
:1037100020E6F53FBCBA28037AA13F752F0080222E
:10372000092320E6E52F0A2B093220E6BC32680A7D
:103730000A09098020E6BC387806E53F19B220E680
:10374000052FBED12F38D9052EBED12E2802816774
:103750000B90BCD9280281367E0820E6129BC77ADE
:10376000B32FADDA79DAD822E52A7E712B12812DBA
:103770000B1A302290609A930A3B227E712D1237E9
:103780006D9D9322E5247E712502376DCAF87CABCE
:103790006D446CFF7CBF7C7A12376D2D430BF0BEFD
:1037A000F00E40F07D34DAF8227E3400207E0800EE
:1037B000247E24000612316A742D7AB32EF174230C
:1037C0007AB32EF2740C7AB32EF374077AB32EF414
:1037D0007AB32EF574A07AB32EF67E340059CA3926
:1037E0007E3461617E2400FF7E082EF71215321BA5
:1037F000FDE5257AB32F22E5287AB32F11227C7BB1
:10380000BE7034382BA5BF02107EB334B4B40106A9
:10381000906050E49322740E22A5BF03107EB3344F
:10382000B4B40106906051E49322741922023A0361
:10383000A5BF35057EB319A222BE70366804A5BFA8
:1038400037197E25087D120B147A15082E272BC4F4
:103850007E29B0A5BF370375563622BE703868047E
:10386000A5BF39197EA334847CBA047AB33484A505
:10387000BF39037556380A3A09B319B322BE703AF4
:103880006804A5BF3B197EA334867CBA047AB3349E
:1038900086A5BF3B0375563A0A3A09B319D622A545
:1038A000BFFB057EB319A422A5BF5E227E0F352F74
:1038B0006940008E0A38123A0C5E3400017CB7036E
:1038C0000354C00A385E3400034CB7448022BE70F3
:1038D0003C6804A5BF3D197EA334887CBA047AB342
:1038E0003488A5BF3D0375563C0A3A09B3190C222A
:1038F000BE703E6804A5BF3F197EA3348A7CBA041B
:103900007AB3348AA5BF3F0375563E0A3A09B31904
:103910002F22BE70404008BE70483803023A03BEF2
:10392000704E6804A5BF4F1C7EA334A57CBA047AF0
:10393000B334A5A5BF4F0375564E0A3A2E372BC296
:103940007E39B022BE70516804A5BF52267EF46055
:10395000006DEE2EE400FF7EB334B00A1B6D002F25
:10396000077E0B60047AB334B0A5BF52037556517D
:103970007CB622BE70534008BE70563803023A032C
:10398000A5BF6D03E50E22BE7060400CBE706C38A2
:10399000070A3709B32F9022BE70F46804A5BFF55B
:1039A000167E250A7D120B147A150A09B22BCAA5B8
:1039B000BFF5037556F422BE70F06804A5BFF10888
:1039C0007C172E1020A5E722BE70F26804A5BFF375
:1039D0001C7E25103E247E0F2BC62D120B0A20A51F
:1039E000BFF2050A347CB7227D327CB722A5BFF630
:1039F00003E50F22A5BFF703749622A5BFFD02E4DD
:103A000022E4220A3709B33460221E341E341E34E5
:103A10001E3422CAD8CA79700D7E08013C7E34005B
:103A20000574FF1215576CFF7409ACBF7DD52ED4F9
:103A3000171F6DCC0B6A30123A0A1B6A307F060BD7
:103A4000150B0A30123A0A1B0A307409ACBF49B58B
:103A500017D31EB41EB41EB41EB449A517D51EA498
:103A60001EA41EA41EA409E517D739E60004097593
:103A700017D839760005097517D9397600067CBE46
:103A8000540FBEB005400261317CEB0A3E09B31809
:103A90002DBEB00378026131B4010774FF123B3FC1
:103AA00061310A3E0913013CA5B9FF2F7401123B95
:103AB0003F1B6AB079A600026CDD1294997E500912
:103AC000AC5D7E301BAC3E2D122E140146740912E3
:103AD00013100BD0BED00378E18056BE1003400413
:103AE000E4123B3F0A3E0903013C7E1009AC017E13
:103AF000301BAC3E7D912D9059B9014659A9014822
:103B00007EB318707013E4123B461B6A3074017E5A
:103B1000301BAC3E123B46800B498901461B6A8034
:103B200049390148793600020A3E2E34013C126FB1
:103B3000010BF0BEF00550024128DA79DAD8220AEA
:103B40003E19B3013C222E1401466D007CAB6D334F
:103B50006C554CAA7E9009780DAC957F702DF40BB6
:103B60007A402D34800CAC957F702DF469470002AB
:103B70002D340B50BE500340D97E2400038D3222D9
:103B8000CA797EF318697EE3186A7CBF7C7E123C9A
:103B9000257CBF12964A4CEE78157E34002DCA392A
:103BA0007E18171F7E0817D31215321BFD800B7E5F
:103BB000B3187070057CBF1294027CBF123A13BE1A
:103BC000F000280674017AB31872DA792212906A2A
:103BD000023B807F71693700027D53125F030B7ACD
:103BE000202D251B0A20692700047D52125F0D1E1F
:103BF000341E342D3579300002693700067D537C40
:103C0000ABE43E543E5412AC012D257920000469EA
:103C10002700087C456C55123A0A1E341E342D329A
:103C200079300006227C677C7BA5BF0017BE600050
:103C3000280F74017AB3186EE47AB318707AB31847
:103C400071025DADA5BE001B6CAA7E60FF7E5009AF
:103C5000AC5A196217D70BA0BEA00578F074017A90
:103C6000B3186D6CAA80267E3009AC3A2E14171F4B
:103C70000B1820123C941B18207E3009AC3A2E14ED
:103C800017210B1820123C941B18200BA0BC7A386B
:103C9000D6220A253E243E243E243E24227E342E73
:103CA000F1300F49C20F09530002123C927A2718D3
:103CB000E109530003123C927A2718E309530004E8
:103CC000123C927A2718E57E39500A253E243E247C
:103CD0007A2718EC095300010A253E243E247A274E
:103CE00018EE0973000512B4297A3718F422125815
:103CF000117EB32F18B401028002A17C12B0C91248
:103D000057F4128E8D123C9D124FDC124B17128C01
:103D1000767EB32F15B40104E4123FDD1264021263
:103D20003DAC7EB3134960067EB31348700BE55279
:103D3000BEB00A50BC055280B8129AA0124F0E7E37
:103D4000B3134960067EB31348700512A0E138A191
:103D5000126BB01229E5128143123F9F123FFC12F1
:103D6000872D123BCD128170125F00126907125924
:103D7000B41257FB128DDB123F6081F112B26B025D
:103D80003D82122FF67EB32E306015E47AB3186AA6
:103D90006C77124FEB1255AA1257DCE47AB32E005F
:103DA0007EB32F15B40104E4023FDD22CAF87EF091
:103DB0000E12AD8F7EB319F4B450037EF00C7E3733
:103DC0000356BE34012C3805123FE52809123F4C3A
:103DD00044017AB32DD67E371A50BE3400782809B4
:103DE000123F4C44017AB32DD67412123F5950073A
:103DF000123F4C4402801A740A123F5950197E73C4
:103E00002E01BE70003805123FE5280B123F4C44CE
:103E1000047AB32DD6806A7407123F59502D123F91
:103E2000EEBE70042809123F4644087AB32DD6121C
:103E30004CFDB4014C7E372E72BE34012C50062E40
:103E40003400C880387E3401F480327404123F5943
:103E5000502F123FEEBE70062809123F4644107ADA
:103E6000B32DD6124CFDB401187E372E72BE34012C
:103E70009050062E34006480047E3401F47A372E8C
:103E8000727E7002AC7FBE37354528227EB32E018C
:103E90006005147AB32E017EB32E71047AB32E71AD
:103EA0007E532E71BE50FA2805E47AB32E71BE37C8
:103EB00035453805E47AB32E717E372E72BE340054
:103EC00032283E7E270330BE2400C850287E1703C8
:103ED00032BE14002D501E7D139E1400037A172E3F
:103EE00072BE240064501A7E272E729E2400077A28
:103EF000272E72800C7EB3186A70061B347A372E18
:103F0000727E372E72BE340033501CBE340000283F
:103F1000167EB314F4702C7EB3186A70267D231BB2
:103F2000247A272E72801C4D3378187EA32DD67CE0
:103F3000BA541F680E7CBA54E07AB32DD624207A86
:103F4000B32DD6DAF82274067AB32E017E3401F44A
:103F50007A372E727EB32DD622ACBFBE573545229E
:103F60007E083585123F8A7E083587123F8A7E0893
:103F7000354E123F8A023F78127E43280C7E7335FD
:103F800084BE70055003128E61220B0A30E55B0A75
:103F90002BBD3228049D3280026D331B0A30220271
:103FA0003FA2CA796CFF6CEE80237CBE122F5D604D
:103FB0001A7E340009CA39AC7E2E3415E76D221200
:103FC000948F6D001215321BFD0BF00BE012A20551
:103FD00038D87A7317047AF31869DA79227003D221
:103FE0008622C286227E370354BE340258227EB314
:103FF0002E01047AB32E017E732E0122023FFF7E32
:10400000A3186ABEA000382FBEA3186950197EB34A
:104010001873BEB302CD28147EB302CD047AB30266
:10402000CD7AA318698005E47AB302CD7EB318690E
:104030007005E47AB31872221243ACB40114CA3981
:104040007E1834A07E08134B1215321BFD12439AC2
:104050008012CA397E1834A07E081A021215321B4B
:10406000FD1243A30226D3CAF87C6BA5BE00097CCF
:10407000B712440ED20641EDA5BE013D7A733461FC
:10408000A5BFAD02802FA5BFAE04D20741EDA5BFED
:10409000AA051244F9801EA5BFAB0A7E3405207A1A
:1040A000372BC48010A5BFAC02800241ED7E3404E2
:1040B000C07A372BC46D332153BE60044020BE60EC
:1040C00008381B1242F0A5BE07076D337A350A4146
:1040D000EDA5BE0802800241ED1244EA41EDA5BE05
:1040E0000A09430C207A73346A41EDA5BE0B08120D
:1040F00042F01244ED41EDBE600F4007BE60103843
:10410000024178BE601B4007BE601C38024178A5A2
:10411000BE13024178A5BE16024178BE601E400D56
:10412000BE602338081242F2430C4041EDBE6024C9
:104130004007BE602C38024178A5BE2D1B1242F20A
:1041400020070241ED7E63348C7C466C550A372D86
:10415000323E347A350841EDBE602F400ABE6033EE
:104160003805430C084178A5BE340F430C10BE70CF
:1041700064380241787E70644178BE60386804A576
:10418000BE3921430C017EF334857CBF047AB334FD
:10419000850A2F197219B3A5BE3902800241ED7547
:1041A000563841EDBE603A6804A5BE3B21430C027F
:1041B0007EF334877CBF047AB334870A2F197219CF
:1041C000D6A5BE3B02800241ED75563A41EDA5BE33
:1041D000FB09430C047A7319A441EDA5BE50067A7D
:1041E0007334B041EDA5BE6D057A710E41EDBE6030
:1041F0003C6804A5BE3D21430C017EF334897CBF9D
:10420000047AB334890A2F1972190CA5BE3D0280B5
:104210000241ED75563C41EDBE603E6804A5BE3FCF
:1042200021430C017EF3348B7CBF047AB3348B0AB8
:104230002F1972192FA5BE3F02800241ED75563E1F
:1042400041EDBE6040400DBE604238081242F2753A
:104250000D01800AA5BE430B1242F2750D021240F9
:104260003841EDA5BE44081242F2124360807EBE82
:1042700060456804A5BE46051242F28070BE604EDD
:104280006804A5BE4F20430D047EF334A67CBF0412
:104290007AB334A60A2F2E272BC27A2970A5BE4FD7
:1042A0004C75564E8047A5BE54127EB334B3B4014C
:1042B0003CBE700350377A7334B48031BE60F04036
:1042C00025BE60F338207C162E10207CB7A5F7A5FC
:1042D000BEF31A7E15127E05103E047E1F2BC62DDE
:1042E000301B1A108007A5BEF6037A710FDAF82288
:1042F000D2060A2619723460227C6B124358780564
:104300007CB60243CAB404057CB6024067223090F2
:1043100019C290E5557009755501E591F556801162
:104320007E7191E5561242F9055630910BC2910506
:1043300056E556124339F591227C7B6CAA124358FC
:1043400078097CB71244397CAB800AB404077CB787
:104350001237FE7CAB7CBA227EB33460C454072291
:104360001243ACB40117CA397E18134B7E0834A02F
:104370001215321BFD1244F012439A801ACA397E7C
:10438000181A027E0834A01215321BFD7E371A0857
:104390007A372BC21243A30226D37E1F134F7E0F00
:1043A000134B227E1F1A067E0F1A02227EB334A4FC
:1043B0007E340004227AB3199270051243A380065A
:1043C000B4010612439A1226D3227CA77C3BA5BBDC
:1043D00000077CBA12440E8025BE30EB6804A5BBF2
:1043E000EC097CB37C7A12700E8013BE3080400ED4
:1043F000BE30DF38097CB324807C7A128149A5BBAA
:10440000FC057CBA021F2174017AB303FF227AB340
:104410003460C45407BEB0046803B402047403805B
:10442000076003B4010774017AB32F182274017A6C
:10443000B32F18E47AB334602270057EB33460225F
:10444000BEB00338157557003010067E182CFB805F
:10445000047E182D397A1D4E8008BEB05E38107566
:1044600057000A1B7E1D4E2D311B347E1BB022BE11
:10447000B0EB6803B4EC030244B8BEB080400CBE9D
:10448000B0DF38070A3B09B32E7122B4FC057EB3B6
:104490002F1822B4FD176CAA7EB3171960034EA023
:1044A000017EB3032B60034EA0027CBA22B4FE054A
:1044B0007EB319A12274FF22B4EB05E47AB334B9B8
:1044C0007E7334B90A272E2400541245137CAB7C2A
:1044D000B7047AB334B9B4030BE47AB334B96D33A7
:1044E0007A3734B77556EB7CBA22B28622B2822272
:1044F0007E3713517A372BC2227E340B807A372BCA
:10450000C4227CAB1243B57CBA1211FE02001E2EEF
:104510002414EC7A51827A4183E49322CA3B6DEEF3
:104520007EC319007ED318FF7EB316F57002A1B2C8
:104530007EB3186A6002807A7EA3156B7E73156C59
:104540007A71246CEE6DFF6CFF0A47801C12466284
:10455000081D0BE0BEA00028067CBA1412464912C2
:10456000465958031246461B44BE44000058DEE537
:10457000240A4B801A12466208210BE0BEA00028D4
:10458000067CBA1412464912465958031246467D13
:10459000240B247D420A3CBD2348DABEE0035002CE
:1045A00080107D3F1215990A2F12123DBE34000F64
:1045B0000807E47AB302CCC1436DDDBEA000280831
:1045C0007CBA141246532DD30A3D1B340ACABDC30C
:1045D00058087CBA041246532DD37E7008802A7E78
:1045E0005002AC577DC22EC415797D1C7A31827A77
:1045F0002183E4931ACBBDCD080F7DC22EC4157A5A
:104600007D2C1245131ACB2DEC7C671B70A5BE00C8
:10461000CE7CBA124653121599BE3405DC08042E1E
:10462000E40050BEE400FA28047EE400FA7EB302FF
:10463000CC0A3BBD3E50087D3E7CB77AB302CC7EAF
:10464000B302CCDA3B227CBA047C7912376D2DF3AD
:104650000BF0227E712402376D0A2D1B240A3ABD0D
:1046600032227CBA7C7912376DBE34003C227CBF8A
:104670006C777C677C7BC423541F7CAB7CB754076E
:104680000A2B2E24005E1245137C7B4C66680F0AB1
:104690002A2E2415E37E29B04CB77A29B0227CB7A4
:1046A00064FF0A2A2E2415E37E29705C7B7A297028
:1046B00022CA3BE47AB320E76D337A3720E87A37B1
:1046C00020EA7D637A3720EC1247E67802E1801217
:1046D0004CFD7002E1806CFF80257CBF122F487A70
:1046E0003720E812AE82124793181212479C280D09
:1046F00012478A280874017AB320E780070BF0126A
:10470000478338D67EB320E7B401106CFF800512D2
:10471000466E0BF012478338F680656CFF80447458
:1047200002ACBF096515A77A6320E609E515A87EE6
:10473000731900AC670A2E2D327A3720EC3E3449CB
:10474000330B801215997A3720E81247931812120A
:10475000479C280D12478A280874017AB320E78005
:104760000A0BF07E7316F6BC7F38B47EB320E7B434
:10477000010E6CFF800512466E0BF012478338F66F
:10478000DA3B227E7316F5BC7F227E37358EBE342F
:1047900001F4227E3718ECBE3720E8227CBE124797
:1047A000B67A3720EA7E5318FF0A251B268D327D04
:1047B00063BE6400FA226D117EA00280117E13197F
:1047C00000AC1A0A4B2D041247EE2D130BA07E737A
:1047D00018FF0A471B450A0ABD0448E17D31227CC7
:1047E000BD6C770246727EB319F4BEB050223E040F
:1047F00049300B80021599CA3B752D007530007E3B
:104800007319007EF318FFACF77ED3346F7E6334E8
:104810006DACD67E2400197D168D127D617E44001C
:10482000647D578D547A55297E7334700A17AD15FF
:104830007A15297E733473AC677A352E8D327A35CA
:104840002E7D373E347E0820E6E41215577EB334C1
:104850007BB40102800221397E73347CBE70003843
:10486000022139752D00753100752400807B1257A7
:10487000ED124B1712493C6DEE7DFE7AE52B803D23
:104880007EE5253EE4493E0B801215997A35277E58
:10489000E5257D2E3E24493220E6BE352758077E89
:1048A0003527593220E67E352BBE352750067E351A
:1048B000277A352BBE652750020BF40BE47AE525E9
:1048C000BE752538BB7EE529BDEF5002052D7EE57E
:1048D0002EBEE52B500405318003753100E531BE55
:1048E000B130280385313005247E73347CBE7124B9
:1048F0002802016EE52DBEB03F2803752D3FE5303F
:10490000BEB00028021530E530BEB0032803753074
:1049100003E5300A3B12B42B3E343E347CB7422DC3
:10492000E52D7AB334717D373E34CA397E1820E6DE
:104930007E080B801215321BFDDA3B227EB317195D
:10494000701C7E080B8012ACB412AD887EB318FFC9
:104950007E73190012496F7E080B80024A1D227E69
:104960007319007A7325477EB325467E7325477EEB
:1049700024FFFF020FC97D807D917DB27DA3121DB2
:10498000B2906050E4937AB32546906051E4937AF4
:10499000B32547124967E47AB3254974067AB325EB
:1049A000487A97254A7A97254E7EA319B17EB3346B
:1049B000B4B402037EA0407E0825460A3A120C9643
:1049C0007D196D0012AC8F7D196D00124A1D121DEC
:1049D0008E7EB33476B4010B7EB334B470057D396A
:1049E0001278BA12A2BC12495F7A87254EE47AB3D4
:1049F00025487EB319AF700FE47AB325497A97251D
:104A00004A7E340020801074017AB325497AA725A4
:104A10004A7AB7254C6D3312A2AB020B66CAF87EF8
:104A2000A00E7E701912AD2770676C66805F6C55A2
:104A300080557E901CAC960AF52D4F3E44094426C5
:104A40000609F426077E9019AC962DF4906051E487
:104A5000937C94AC9B0AEF2D4E7EB334B4B4021217
:104A60000AC40BC47ED40064ADDC0AEF0BE42DED68
:104A700080087DE43EE449EE30007DDF3ED42DD158
:104A80007DC01B6AE00B50BC7538A70B60BCA63814
:104A90009DDAF822121DB27E08400012AC8F7E080B
:104AA0000B80124A1D121D8E7E340B807A3720EA4D
:104AB0007E3412027A3720EE7E3411F87A3720ECF9
:104AC0007E7318FF7A7320E77E7319007A7320E6ED
:104AD0007EB320E77E7320E612496F7E3718EE7AA8
:104AE0003720F07E3718F07A3720F27E3718F27AC6
:104AF0003720F474017AB320E87AB320E97E0820E5
:104B0000E67E1820F61206457E3721007E2720FC1F
:104B1000BD2328027D3222CA3B1277F950FB121DB9
:104B2000B27EF319A17CBF1273771276E01278126D
:104B3000127FFC7EB319B1F5327EC319B27EB32F5A
:104B400018B401181255AA129526124C517EB313AF
:104B5000497009124C37121D8EC38125124C283E14
:104B600034CA397E1806487E0804601215321BFDCF
:104B7000124C283E34CA397E1806A87E080400125A
:104B800015321BFD7EB32F18B403071294A37A3796
:104B900034A774017AB31348121961129517E412FD
:104BA0001215124C377E0804607A0D337E1805E02A
:104BB0007EB31A04128D3C7E0804007A0D337E18F1
:104BC00005807EB3134D128D3C7ED319B17EE3195F
:104BD000B2E5327AB319B17AC319B27E3407207EB6
:104BE000040B807D207D101249767AD319B17AE3C7
:104BF00019B27CBF1272F712A23F7EB33584047AD9
:104C0000B335847E733584BE70FA280674647AB333
:104C10003584121D8E7EB3134860097EB31349603C
:104C200003D38001C3DA3B227E7319060A277E7301
:104C300019050A372D3222E47AB303EA7AB303E97D
:104C4000127068B401047401800274037AB303EA39
:104C5000227EB303206006147AB303202212A958DF
:104C60007EB32EFC700E7EB32FFFB40107E4124C0E
:104C7000A9124CF312779F12740C7CAB300B09E431
:104C8000124CA9C20B024CF37EB32EFC7AB32FFF59
:104C9000124CFD60037EA0FFBEA0FF680B7CBA1221
:104CA0004CA96D337A371A5022CAD8CA797CDB7E78
:104CB0003401F47A372FFD7EF005ACFD097714A49A
:104CC0007A7319A1097714A57A7319A6097714A61E
:104CD0007A7319B1097714A77A7319B21251E109DD
:104CE000B714A81254AE1218F3E47AB31349DA7960
:104CF000DAD822E47AB303237AB3032B22201502F5
:104D0000E4221266C1280474018001E4227E50016D
:104D10007401124ED27EF400B4E47AB3171D124E21
:104D2000A37EE7070EBEE4FF38581E7E0716FB7E03
:104D300014000EAD107EE716FF3EE43EE43EE43E76
:104D4000E42DE1BEE4000048227E4319060AE47E19
:104D50004319050A342D3E0E347E4315690A147E2C
:104D600043156A0AE42DE1BDE308196DEE9EE718CC
:104D7000ECBEE716FF080D12AC8C6008124CFD70FB
:104D800003124EC37EB31719BEB00168067EB33559
:104D9000526007E47AB3171E8065124EAD2805E411
:104DA0007AB3171E7E431563BE40002817124EA328
:104DB00012A67E7C5B124CFDB4011EE47AB3171E72
:104DC0006C5580157EB314F6700F7E4316F6BE4008
:104DD0000028067E5003124EA37EE7070ABEE402B7
:104DE000580817124EAD28126DEE9DEFBEE716FF64
:104DF0005808124EB5E47AB3171E7CB5124ED21283
:104E00004EF1B40109E47AB3171E7AB3171D7EB3CD
:104E10001A1E70127E731874BE70014009E47AB3D2
:104E200016F57AB3171E124EAA4009124CFD0AEB72
:104E30004DEE680DE47AB3171E12AC842803124EAF
:104E4000B57EE716FBBDEF08146D339D3FBE3716E8
:104E5000FF580A124EAA5005E47AB3171E12A31681
:104E6000B40105E47AB3171E7EB31718B401031218
:104E70004EE112A78D7EB32994BEB0002817147A94
:104E8000B329947010E47AB3171E124EE17AB31668
:104E9000F57AB314F412A7205008124EF1700302F1
:104EA0004EC32274017AB3171E22A213227E431628
:104EB000F5BE400022E47AB329947AB3171D740238
:104EC000022FF774027AB3299474017AB3171D0282
:104ED0002FF67C7B7402ACB77A5717127A571714E7
:104EE0002274017AB3171DE47AB313497AB31348D5
:104EF000227EB3171ABEB0016805127E43280374E0
:104F00000122E545BEB0002803740222E42212A467
:104F100079124D0D124F587EB32F16B4010574054A
:104F2000124ED27EB3171A700312AC0A7EB33593B9
:104F30006007147AB3359380067EB3171D6009129B
:104F40004FD01254D912AEF97EB3171E600912B2B7
:104F50007112A2C502AA3722124F776019124EA30E
:104F60007E3717123E347A3717127E3717143E34C5
:104F70007A371714D20222CA79E47E7319001E70A0
:104F80006C6612AB097CFB7E7319007CB71EB07E89
:104F9000600112AB097CEBBEF0003805BEE00028D2
:104FA000217EB3355F047AB3355F7E73355FBE70A3
:104FB000322814124EF1700FE47AB3355F124FD0DD
:104FC0008005E47AB3355F0A4E0A5F2D54DA792200
:104FD00012A7E712A26E024FD9C21122124CFD6035
:104FE0000474028001E46C77024FEB7C6B7EB32E7D
:104FF00030B4020D7E5316F5BE500028044C66688E
:1050000035A5BE020530152E8002C2157A632E31F9
:10501000BE632E3068177EB3186A60067EB31349EC
:10502000700B74017AB32E747A732DD722E47AB39D
:105030002E747AB32DD722A20CE4337AB3348E7E49
:10504000733492BE7319A1680DE50C7009125059A2
:105050001250F01250CB021DB27E7319A17A733434
:105060009222CAD8CA797CDB7EA004BED080781890
:105070007EE0FF6CFF800B1250BF38047CEB7CDFBE
:105080000BF0BCAF38F1801ABED08178156CEE6C95
:10509000FF800B1250BF40047CEB7CDF0BF0BCAFF9
:1050A00038F1BCAD38026CDD7CBD124CA91250E861
:1050B0001250591250D37AD3346ADA79DAD8227E70
:1050C0009005AC9F09B414A4BCBE227E7319A67AC5
:1050D0007334837E7319F47A733493227AB31A0487
:1050E0007E7319F47A7334937E7319A67A733483BA
:1050F0007E7319B17A7334827E7319B27A733481F4
:10510000227405121CEC74207AB319F41254AE12F6
:10511000547DCA391254921215321BFD125475CAAD
:10512000391254851215321BFD125442746E1254FA
:105130009FCA391251687E082E021215321BFD7E5D
:10514000340028CA391251687E0814A41215321B83
:10515000FD1251DB90612BE4937AB3134D90612FD4
:10516000E4931250DC0250597E3461D77E2400FF54
:10517000227406121CEC74507AB319F412547DCACE
:10518000397E182E4E7E0819B31215321BFD1254AB
:1051900075CA397E182E327E0819D61215321BFDBB
:1051A000125442746612549FCA397E182DD87E0854
:1051B0002E021215321BFD7E340028CA397E182DAE
:1051C000D87E0814A41215321BFD743D1251DD74F3
:1051D000067AB3134D1250DC02505974247AB31975
:1051E000A11251E97A3719AD227E2319A17E3334F9
:1051F00091AC232E1401F4BE14000A50047E140056
:105200000A7E6319A2BE140F3C40047E140F3CBEFC
:105210001407084003E4800CBE14038440047401A6
:10522000800274027AB319A27E7319A2BC76680256
:10523000D20E7E2401F47D318D327C17BE100728FA
:10524000037E10077E1F352F69510086541F0A0107
:105250003E043E043E043E043E042D0579010086D2
:105260006D0012B4910212DC1251DD121DB2300E2B
:105270000A1254C7300304E41208C5121D8E30030D
:105280000912AA0512A8B60254D9227CAB121DB28B
:1052900074017AB30325BEA0027805125171800310
:1052A0001251017E0818FF120120E41208C51255A0
:1052B00026021D8ECA79906050E4937CAB906051B9
:1052C000E4937CEB7EB31906BCBE28047CFB800211
:1052D0007CFE7AA318FF7AE319007AA319037AE314
:1052E00019047AA319057AE31906E47AB319097A3D
:1052F000A319017AE3190274057AB3190A9060942C
:10530000E4937AB3190B0A3ACA397E3460527E2488
:1053100000FF7E08190C1215321BFD0A3FCA397EA8
:105320003460757E2400FF7E08192F1215321BFD94
:105330007E340023CA391254921215321BFD1254C6
:10534000F4126874121D8E7E7318FF7A7319077E2B
:105350007319007A731908121DB212555C74011288
:1053600026A4E47AB319937AB319941267EE7A37C4
:10537000199F74037AB31995E47AB3199674027A73
:10538000B319977E3400787A37199974047AB3196F
:10539000987E34000F7A37199B7E34205F7A371954
:1053A0009D74207AB319F474027AB319A274207A26
:1053B000B319A374047AB319A51251DBE47AB319B3
:1053C000AF7AB319B07E3401F47A3719AB74017A2D
:1053D000B319A4125442746E7AB319B16D337A378B
:1053E00019A77A3719A974047AB319A67E34003044
:1053F0007A3719FC74027AB319F97E3400057A37CA
:1054000019FAE47AB319F87E34046D7A3719FE7408
:10541000017AB319F574037AB319F6E47AB319F77C
:1054200074017AB319F2E47AB319F37E3414D47A9E
:10543000371A000A3ECA391254851215321BFDDA9A
:10544000792274407AB319B2221254427401121EA6
:10545000057E43347F7E5064AC451289D27AB319FD
:10546000B11250F87E7319B17A7334827E7319A623
:105470007A73348322906051E4930A3B2290605007
:10548000E4930A3B227E3460FB7E2400FF7E0819F1
:10549000D6227E3460D87E2400FF7E0819B3227A9B
:1054A000B319B174047AB319A67E340028227EA3FE
:1054B00019F4BCAB68067AB319F4D20E300E071299
:1054C00054C7E40208C522C20E7E0818FF1201204C
:1054D0007E0818FF740302100012A9586D337A3742
:1054E00003DF6CAA12AA7E0BA0BEA00440F6E47AE9
:1054F000B3032C2212B48012AEEE12551E2E1419D4
:105500000C6D00E5257E34000512155712551E2E30
:105510001419B36D00E5247E340005021557906020
:1055200050E4930A1B227E08254612B4516C778002
:105530000E12B447500712B46E195125460B707EF7
:10554000531900BC5738EAA9C6EA7E082546E4127A
:105550000F87A9D6EA7E082546020F877E3400040D
:10556000CA397E34612D7E2400FF7E081A0212158E
:10557000321BFD7E3418AF7A371A08E47AB31A0664
:105580007AB31A077E340004CA391267E57E08131D
:105590004B1215321BFD7E341A1F7A371351E47AF1
:1055A000B3134F74017AB31350227EB32E74B40137
:1055B0006F7E732E31BE732E3068657EB32DD7B4E7
:1055C000010F12AE8B70051256213854E47AB32DB8
:1055D000D71257E61290397EB32E3112528B1256E3
:1055E0002128117EB32E31700874017AB33593D21D
:1055F000011256736D337A371A50124EE77E732EAE
:10560000317A732E307AB32E747EB319F4B4500607
:105610007E34187580047E340FE87A3553021DB24B
:10562000227E373581BE34000022740212565D128C
:105630004FDC1255AA12567390605112B4BACA596F
:105640007E180FE87E0818751215321BFDE41256FD
:105650005D0256547AB319B07AB3199422B4020891
:10566000D2157E3401F480067008C2156D337A3786
:105670002E7222E47AB319B07EB319B0701F12579C
:10568000ED1277F950FB125722124FD92011031255
:10569000569E74027AB319B0E47AB3134922CA3B16
:1056A0007EB319A17AB320E57EF319F41273597C05
:1056B000DBBED0FF68696CCC7405ACBC09B514A422
:1056C000F5337E7319A1BE713368367E7004AC7DEC
:1056D0000A2C128ED17CEBBEE00238430A0E7E14F7
:1056E0000231AD102E141A526D007A0D347E701DE9
:1056F000AC7E2E342F546D227A1F2F507CBC127139
:10570000220BC0BEC00440B07E7319F4BC7F680693
:105710007AF319F4D20ED2037EB320E5125268DA7E
:105720003B227E0F0FE47E180720CA3B7A1D337F91
:10573000307EB319AFF538E47AB319AF7F037E1D1D
:10574000331268C112710E121FAF121D8E7EB32E5E
:1057500031B402047408800274047AB3359412548C
:10576000753E347E080FE8E4121557753700805AED
:10577000E412000E12711712004660FB7401120051
:105780000E7E1F0FE07E1440007D217D07124976BA
:1057900012AEA26D3380267E35393E347F032D1341
:1057A0000B0A507E5335940A458D547E0D332D13CC
:1057B0000B0A302D351B0A307E35390B347A3539DA
:1057C0001272EDBE553938CF05377E733594BE71F0
:1057D00037389DE5387AB319AFDA3B221257F4E433
:1057E0001256540219616D337A37356C227E3403B8
:1057F000E80219947E3400C80219947E7317047A63
:105800007317057E7318697A73186AE47AB3186D92
:1058100022125FA16D337A3734BA7A373581121983
:1058200090121961124C3702582A7E0801327E34D8
:10583000000A74091215577E08005D1259AC7E08E3
:1058400000717E34000A021557CAF87E9318697EEB
:105850003418CE7E2400FF7E140024740A12133103
:105860007E78182D4C99782112582A7E0802F6125B
:1058700059AC7E0803001259987E08030A12599801
:105880007E08031412599821957EB314A3600A145C
:105890007AB314A37EF00E80037EF0096CAA7E70AA
:1058A00009AC7A7DD32ED417796DCC29360004BE8D
:1058B00030FF7802218C0A332D3F7D2E7E1B20A5E0
:1058C000BA0202800221757E1004AC13493002CE68
:1058D0000B6A409D43490002D069B600029DB07D2D
:1058E000341215997D437D3B1215997DB30A030946
:1058F0007001320A07BD04081FBD0B081B7E10048F
:10590000AC13490002CE1B6A007E1004AC134900A0
:1059100002D079060002803E0B6A007E5004AC5330
:10592000590202CE69060002590202D0BC7F280843
:105930000A0319F001328011BE7001280C0A032EEF
:105940000401327CB7147A09B00A032E0400717E78
:1059500009B0147A09B07C132E1024A5E704A5F72A
:10596000BEB05A2827E4A5F712599F6906000259CC
:105970000302D08017A5BA001312599F69A600022E
:1059800059A302D07C132E1024E4A5F70BA0BEA0CF
:10599000056802019EDAF8227E34000A0215570BD0
:1059A0006A207E7004AC73592302CE227E34000A32
:1059B000E4021557CA3B752400752500752600754D
:1059C00027007528036CCC7E48182D7EB3186970AB
:1059D000177E732CCCBE70002813125F147EB32C7C
:1059E000CC147AB32CCCA13FE47AB32CCC7EB31880
:1059F0007270137EB3186E700D7EB3186F7007123D
:105A00005D4B6802A11D3010067E682D3980047E32
:105A1000682CFB7F06125F8E7E73186B7A6B701298
:105A20005D4B7803125DF87E0820E61259AC6CFFDE
:105A30008012125D66BED005500874010A3D19B38C
:105A400020E60BF07E7318DFBC7F38E66CFF0A3F60
:105A500009B320E67005E419B3009A0BF0BEF00A12
:105A600078EC6CFF81C5125D667CBD540F0A3B2D3E
:105A7000397D287E1BB0F5287CBD54F0BEB00028CF
:105A80000281C37E0800287CBD1295CFBEB001788C
:105A90000281C3E528BEB003780281C37409ACBF9C
:105AA00009B5177EF5267409ACBF09B5177FC45434
:105AB000F0F5277E7318DFBC7D285B7EB31870700D
:105AC0002A75290F7E0800260A3D2E342CE76D2208
:105AD0007401125D6F7529207E0800270A3D2E345F
